{
  "contractName": "Token1155",
  "abi": [
    {
      "inputs": [],
      "stateMutability": "nonpayable",
      "type": "constructor"
    },
    {
      "anonymous": false,
      "inputs": [
        {
          "indexed": true,
          "internalType": "address",
          "name": "account",
          "type": "address"
        },
        {
          "indexed": true,
          "internalType": "address",
          "name": "operator",
          "type": "address"
        },
        {
          "indexed": false,
          "internalType": "bool",
          "name": "approved",
          "type": "bool"
        }
      ],
      "name": "ApprovalForAll",
      "type": "event"
    },
    {
      "anonymous": false,
      "inputs": [
        {
          "indexed": true,
          "internalType": "address",
          "name": "operator",
          "type": "address"
        },
        {
          "indexed": true,
          "internalType": "address",
          "name": "from",
          "type": "address"
        },
        {
          "indexed": true,
          "internalType": "address",
          "name": "to",
          "type": "address"
        },
        {
          "indexed": false,
          "internalType": "uint256[]",
          "name": "ids",
          "type": "uint256[]"
        },
        {
          "indexed": false,
          "internalType": "uint256[]",
          "name": "values",
          "type": "uint256[]"
        }
      ],
      "name": "TransferBatch",
      "type": "event"
    },
    {
      "anonymous": false,
      "inputs": [
        {
          "indexed": true,
          "internalType": "address",
          "name": "operator",
          "type": "address"
        },
        {
          "indexed": true,
          "internalType": "address",
          "name": "from",
          "type": "address"
        },
        {
          "indexed": true,
          "internalType": "address",
          "name": "to",
          "type": "address"
        },
        {
          "indexed": false,
          "internalType": "uint256",
          "name": "id",
          "type": "uint256"
        },
        {
          "indexed": false,
          "internalType": "uint256",
          "name": "value",
          "type": "uint256"
        }
      ],
      "name": "TransferSingle",
      "type": "event"
    },
    {
      "anonymous": false,
      "inputs": [
        {
          "indexed": false,
          "internalType": "string",
          "name": "value",
          "type": "string"
        },
        {
          "indexed": true,
          "internalType": "uint256",
          "name": "id",
          "type": "uint256"
        }
      ],
      "name": "URI",
      "type": "event"
    },
    {
      "inputs": [],
      "name": "GOLD",
      "outputs": [
        {
          "internalType": "uint256",
          "name": "",
          "type": "uint256"
        }
      ],
      "stateMutability": "view",
      "type": "function",
      "constant": true
    },
    {
      "inputs": [],
      "name": "SHIELD",
      "outputs": [
        {
          "internalType": "uint256",
          "name": "",
          "type": "uint256"
        }
      ],
      "stateMutability": "view",
      "type": "function",
      "constant": true
    },
    {
      "inputs": [],
      "name": "SILVER",
      "outputs": [
        {
          "internalType": "uint256",
          "name": "",
          "type": "uint256"
        }
      ],
      "stateMutability": "view",
      "type": "function",
      "constant": true
    },
    {
      "inputs": [],
      "name": "SWORD",
      "outputs": [
        {
          "internalType": "uint256",
          "name": "",
          "type": "uint256"
        }
      ],
      "stateMutability": "view",
      "type": "function",
      "constant": true
    },
    {
      "inputs": [],
      "name": "THORS_HAMMER",
      "outputs": [
        {
          "internalType": "uint256",
          "name": "",
          "type": "uint256"
        }
      ],
      "stateMutability": "view",
      "type": "function",
      "constant": true
    },
    {
      "inputs": [
        {
          "internalType": "address",
          "name": "account",
          "type": "address"
        },
        {
          "internalType": "uint256",
          "name": "id",
          "type": "uint256"
        }
      ],
      "name": "balanceOf",
      "outputs": [
        {
          "internalType": "uint256",
          "name": "",
          "type": "uint256"
        }
      ],
      "stateMutability": "view",
      "type": "function",
      "constant": true
    },
    {
      "inputs": [
        {
          "internalType": "address[]",
          "name": "accounts",
          "type": "address[]"
        },
        {
          "internalType": "uint256[]",
          "name": "ids",
          "type": "uint256[]"
        }
      ],
      "name": "balanceOfBatch",
      "outputs": [
        {
          "internalType": "uint256[]",
          "name": "",
          "type": "uint256[]"
        }
      ],
      "stateMutability": "view",
      "type": "function",
      "constant": true
    },
    {
      "inputs": [
        {
          "internalType": "address",
          "name": "account",
          "type": "address"
        },
        {
          "internalType": "address",
          "name": "operator",
          "type": "address"
        }
      ],
      "name": "isApprovedForAll",
      "outputs": [
        {
          "internalType": "bool",
          "name": "",
          "type": "bool"
        }
      ],
      "stateMutability": "view",
      "type": "function",
      "constant": true
    },
    {
      "inputs": [
        {
          "internalType": "address",
          "name": "from",
          "type": "address"
        },
        {
          "internalType": "address",
          "name": "to",
          "type": "address"
        },
        {
          "internalType": "uint256[]",
          "name": "ids",
          "type": "uint256[]"
        },
        {
          "internalType": "uint256[]",
          "name": "amounts",
          "type": "uint256[]"
        },
        {
          "internalType": "bytes",
          "name": "data",
          "type": "bytes"
        }
      ],
      "name": "safeBatchTransferFrom",
      "outputs": [],
      "stateMutability": "nonpayable",
      "type": "function"
    },
    {
      "inputs": [
        {
          "internalType": "address",
          "name": "from",
          "type": "address"
        },
        {
          "internalType": "address",
          "name": "to",
          "type": "address"
        },
        {
          "internalType": "uint256",
          "name": "id",
          "type": "uint256"
        },
        {
          "internalType": "uint256",
          "name": "amount",
          "type": "uint256"
        },
        {
          "internalType": "bytes",
          "name": "data",
          "type": "bytes"
        }
      ],
      "name": "safeTransferFrom",
      "outputs": [],
      "stateMutability": "nonpayable",
      "type": "function"
    },
    {
      "inputs": [
        {
          "internalType": "address",
          "name": "operator",
          "type": "address"
        },
        {
          "internalType": "bool",
          "name": "approved",
          "type": "bool"
        }
      ],
      "name": "setApprovalForAll",
      "outputs": [],
      "stateMutability": "nonpayable",
      "type": "function"
    },
    {
      "inputs": [
        {
          "internalType": "bytes4",
          "name": "interfaceId",
          "type": "bytes4"
        }
      ],
      "name": "supportsInterface",
      "outputs": [
        {
          "internalType": "bool",
          "name": "",
          "type": "bool"
        }
      ],
      "stateMutability": "view",
      "type": "function",
      "constant": true
    },
    {
      "inputs": [
        {
          "internalType": "uint256",
          "name": "",
          "type": "uint256"
        }
      ],
      "name": "uri",
      "outputs": [
        {
          "internalType": "string",
          "name": "",
          "type": "string"
        }
      ],
      "stateMutability": "view",
      "type": "function",
      "constant": true
    }
  ],
  "bytecode": "0x60806040523480156200001157600080fd5b506040518060600160405280602781526020016200349b602791396200003d816200011560201b60201c565b506200006a336000670de0b6b3a7640000604051806020016040528060008152506200013160201b60201c565b6200009a3360016b033b2e3c9fd0803ce8000000604051806020016040528060008152506200013160201b60201c565b620000bf3360026001604051806020016040528060008152506200013160201b60201c565b620000e7336003633b9aca00604051806020016040528060008152506200013160201b60201c565b6200010f336004633b9aca00604051806020016040528060008152506200013160201b60201c565b62000d37565b80600290805190602001906200012d929190620005ec565b5050565b600073ffffffffffffffffffffffffffffffffffffffff168473ffffffffffffffffffffffffffffffffffffffff161415620001a4576040517f08c379a00000000000000000000000000000000000000000000000000000000081526004016200019b90620008c4565b60405180910390fd5b6000620001b6620002f660201b60201c565b9050620001ef81600087620001d188620002fe60201b60201c565b620001e288620002fe60201b60201c565b87620003c760201b60201c565b8260008086815260200190815260200160002060008773ffffffffffffffffffffffffffffffffffffffff1673ffffffffffffffffffffffffffffffffffffffff168152602001908152602001600020600082825462000250919062000955565b925050819055508473ffffffffffffffffffffffffffffffffffffffff16600073ffffffffffffffffffffffffffffffffffffffff168273ffffffffffffffffffffffffffffffffffffffff167fc3d58168c5ae7397731d063d5bbf3d657854427343f4c083240f7aacaa2d0f628787604051620002d0929190620008e6565b60405180910390a4620002ef81600087878787620003cf60201b60201c565b5050505050565b600033905090565b60606000600167ffffffffffffffff81111562000344577f4e487b7100000000000000000000000000000000000000000000000000000000600052604160045260246000fd5b604051908082528060200260200182016040528015620003735781602001602082028036833780820191505090505b5090508281600081518110620003b2577f4e487b7100000000000000000000000000000000000000000000000000000000600052603260045260246000fd5b60200260200101818152505080915050919050565b505050505050565b620003fb8473ffffffffffffffffffffffffffffffffffffffff16620005d960201b62000fd91760201c565b15620005d1578373ffffffffffffffffffffffffffffffffffffffff1663f23a6e6187878686866040518663ffffffff1660e01b815260040162000444959493929190620007f8565b602060405180830381600087803b1580156200045f57600080fd5b505af19250505080156200049357506040513d601f19601f82011682018060405250810190620004909190620006b3565b60015b6200054557620004a262000b4b565b806308c379a01415620005065750620004ba62000c7b565b80620004c7575062000508565b806040517f08c379a0000000000000000000000000000000000000000000000000000000008152600401620004fd91906200085c565b60405180910390fd5b505b6040517f08c379a00000000000000000000000000000000000000000000000000000000081526004016200053c9062000880565b60405180910390fd5b63f23a6e6160e01b7bffffffffffffffffffffffffffffffffffffffffffffffffffffffff1916817bffffffffffffffffffffffffffffffffffffffffffffffffffffffff191614620005cf576040517f08c379a0000000000000000000000000000000000000000000000000000000008152600401620005c690620008a2565b60405180910390fd5b505b505050505050565b600080823b905060008111915050919050565b828054620005fa9062000a52565b90600052602060002090601f0160209004810192826200061e57600085556200066a565b82601f106200063957805160ff19168380011785556200066a565b828001600101855582156200066a579182015b82811115620006695782518255916020019190600101906200064c565b5b5090506200067991906200067d565b5090565b5b80821115620006985760008160009055506001016200067e565b5090565b600081519050620006ad8162000d1d565b92915050565b600060208284031215620006c657600080fd5b6000620006d6848285016200069c565b91505092915050565b620006ea81620009b2565b82525050565b6000620006fd826200091d565b62000709818562000933565b93506200071b81856020860162000a1c565b620007268162000b70565b840191505092915050565b60006200073e8262000928565b6200074a818562000944565b93506200075c81856020860162000a1c565b620007678162000b70565b840191505092915050565b60006200078160348362000944565b91506200078e8262000b8e565b604082019050919050565b6000620007a860288362000944565b9150620007b58262000bdd565b604082019050919050565b6000620007cf60218362000944565b9150620007dc8262000c2c565b604082019050919050565b620007f28162000a12565b82525050565b600060a0820190506200080f6000830188620006df565b6200081e6020830187620006df565b6200082d6040830186620007e7565b6200083c6060830185620007e7565b8181036080830152620008508184620006f0565b90509695505050505050565b6000602082019050818103600083015262000878818462000731565b905092915050565b600060208201905081810360008301526200089b8162000772565b9050919050565b60006020820190508181036000830152620008bd8162000799565b9050919050565b60006020820190508181036000830152620008df81620007c0565b9050919050565b6000604082019050620008fd6000830185620007e7565b6200090c6020830184620007e7565b9392505050565b6000604051905090565b600081519050919050565b600081519050919050565b600082825260208201905092915050565b600082825260208201905092915050565b6000620009628262000a12565b91506200096f8362000a12565b9250827fffffffffffffffffffffffffffffffffffffffffffffffffffffffffffffffff03821115620009a757620009a662000abe565b5b828201905092915050565b6000620009bf82620009f2565b9050919050565b60007fffffffff0000000000000000000000000000000000000000000000000000000082169050919050565b600073ffffffffffffffffffffffffffffffffffffffff82169050919050565b6000819050919050565b60005b8381101562000a3c57808201518184015260208101905062000a1f565b8381111562000a4c576000848401525b50505050565b6000600282049050600182168062000a6b57607f821691505b6020821081141562000a825762000a8162000aed565b5b50919050565b62000a938262000b70565b810181811067ffffffffffffffff8211171562000ab55762000ab462000b1c565b5b80604052505050565b7f4e487b7100000000000000000000000000000000000000000000000000000000600052601160045260246000fd5b7f4e487b7100000000000000000000000000000000000000000000000000000000600052602260045260246000fd5b7f4e487b7100000000000000000000000000000000000000000000000000000000600052604160045260246000fd5b600060033d111562000b6d5760046000803e62000b6a60005162000b81565b90505b90565b6000601f19601f8301169050919050565b60008160e01c9050919050565b7f455243313135353a207472616e7366657220746f206e6f6e204552433131353560008201527f526563656976657220696d706c656d656e746572000000000000000000000000602082015250565b7f455243313135353a204552433131353552656365697665722072656a6563746560008201527f6420746f6b656e73000000000000000000000000000000000000000000000000602082015250565b7f455243313135353a206d696e7420746f20746865207a65726f2061646472657360008201527f7300000000000000000000000000000000000000000000000000000000000000602082015250565b600060443d101562000c8d5762000d1a565b62000c9762000913565b60043d036004823e80513d602482011167ffffffffffffffff8211171562000cc157505062000d1a565b808201805167ffffffffffffffff81111562000ce1575050505062000d1a565b80602083010160043d03850181111562000d0057505050505062000d1a565b62000d118260200185018662000a88565b82955050505050505b90565b62000d2881620009c6565b811462000d3457600080fd5b50565b6127548062000d476000396000f3fe608060405234801561001057600080fd5b50600436106100ce5760003560e01c80634e1273f41161008c578063d562e20411610066578063d562e20414610225578063e3e55f0814610243578063e985e9c514610261578063f242432a14610291576100ce565b80634e1273f4146101bb5780635b2725ed146101eb578063a22cb46514610209576100ce565b8062fdd58e146100d357806301ffc9a7146101035780630e89341c1461013357806313dc989f146101635780632eb2c2d6146101815780633e4bee381461019d575b600080fd5b6100ed60048036038101906100e891906118bd565b6102ad565b6040516100fa9190611efa565b60405180910390f35b61011d60048036038101906101189190611965565b610376565b60405161012a9190611d7d565b60405180910390f35b61014d600480360381019061014891906119b7565b610458565b60405161015a9190611d98565b60405180910390f35b61016b6104ec565b6040516101789190611efa565b60405180910390f35b61019b60048036038101906101969190611733565b6104f1565b005b6101a56108e7565b6040516101b29190611efa565b60405180910390f35b6101d560048036038101906101d091906118f9565b6108ec565b6040516101e29190611d24565b60405180910390f35b6101f3610a9d565b6040516102009190611efa565b60405180910390f35b610223600480360381019061021e9190611881565b610aa2565b005b61022d610c23565b60405161023a9190611efa565b60405180910390f35b61024b610c28565b6040516102589190611efa565b60405180910390f35b61027b600480360381019061027691906116f7565b610c2d565b6040516102889190611d7d565b60405180910390f35b6102ab60048036038101906102a691906117f2565b610cc1565b005b60008073ffffffffffffffffffffffffffffffffffffffff168373ffffffffffffffffffffffffffffffffffffffff16141561031e576040517f08c379a000000000000000000000000000000000000000000000000000000000815260040161031590611dfa565b60405180910390fd5b60008083815260200190815260200160002060008473ffffffffffffffffffffffffffffffffffffffff1673ffffffffffffffffffffffffffffffffffffffff16815260200190815260200160002054905092915050565b60007fd9b67a26000000000000000000000000000000000000000000000000000000007bffffffffffffffffffffffffffffffffffffffffffffffffffffffff1916827bffffffffffffffffffffffffffffffffffffffffffffffffffffffff1916148061044157507f0e89341c000000000000000000000000000000000000000000000000000000007bffffffffffffffffffffffffffffffffffffffffffffffffffffffff1916827bffffffffffffffffffffffffffffffffffffffffffffffffffffffff1916145b80610451575061045082610fec565b5b9050919050565b6060600280546104679061219d565b80601f01602080910402602001604051908101604052809291908181526020018280546104939061219d565b80156104e05780601f106104b5576101008083540402835291602001916104e0565b820191906000526020600020905b8154815290600101906020018083116104c357829003601f168201915b50505050509050919050565b600381565b8151835114610535576040517f08c379a000000000000000000000000000000000000000000000000000000000815260040161052c90611eda565b60405180910390fd5b600073ffffffffffffffffffffffffffffffffffffffff168473ffffffffffffffffffffffffffffffffffffffff1614156105a5576040517f08c379a000000000000000000000000000000000000000000000000000000000815260040161059c90611e3a565b60405180910390fd5b6105ad611056565b73ffffffffffffffffffffffffffffffffffffffff168573ffffffffffffffffffffffffffffffffffffffff1614806105f357506105f2856105ed611056565b610c2d565b5b610632576040517f08c379a000000000000000000000000000000000000000000000000000000000815260040161062990611e5a565b60405180910390fd5b600061063c611056565b905061064c81878787878761105e565b60005b8451811015610852576000858281518110610693577f4e487b7100000000000000000000000000000000000000000000000000000000600052603260045260246000fd5b6020026020010151905060008583815181106106d8577f4e487b7100000000000000000000000000000000000000000000000000000000600052603260045260246000fd5b60200260200101519050600080600084815260200190815260200160002060008b73ffffffffffffffffffffffffffffffffffffffff1673ffffffffffffffffffffffffffffffffffffffff16815260200190815260200160002054905081811015610779576040517f08c379a000000000000000000000000000000000000000000000000000000000815260040161077090611e7a565b60405180910390fd5b818161078591906120b3565b60008085815260200190815260200160002060008c73ffffffffffffffffffffffffffffffffffffffff1673ffffffffffffffffffffffffffffffffffffffff168152602001908152602001600020819055508160008085815260200190815260200160002060008b73ffffffffffffffffffffffffffffffffffffffff1673ffffffffffffffffffffffffffffffffffffffff1681526020019081526020016000206000828254610837919061205d565b925050819055505050508061084b90612200565b905061064f565b508473ffffffffffffffffffffffffffffffffffffffff168673ffffffffffffffffffffffffffffffffffffffff168273ffffffffffffffffffffffffffffffffffffffff167f4a39dc06d4c0dbc64b70af90fd698a233a518aa5d07e595d983b8c0526c8f7fb87876040516108c9929190611d46565b60405180910390a46108df818787878787611066565b505050505050565b600081565b60608151835114610932576040517f08c379a000000000000000000000000000000000000000000000000000000000815260040161092990611eba565b60405180910390fd5b6000835167ffffffffffffffff811115610975577f4e487b7100000000000000000000000000000000000000000000000000000000600052604160045260246000fd5b6040519080825280602002602001820160405280156109a35781602001602082028036833780820191505090505b50905060005b8451811015610a9257610a3c8582815181106109ee577f4e487b7100000000000000000000000000000000000000000000000000000000600052603260045260246000fd5b6020026020010151858381518110610a2f577f4e487b7100000000000000000000000000000000000000000000000000000000600052603260045260246000fd5b60200260200101516102ad565b828281518110610a75577f4e487b7100000000000000000000000000000000000000000000000000000000600052603260045260246000fd5b60200260200101818152505080610a8b90612200565b90506109a9565b508091505092915050565b600481565b8173ffffffffffffffffffffffffffffffffffffffff16610ac1611056565b73ffffffffffffffffffffffffffffffffffffffff161415610b18576040517f08c379a0000000000000000000000000000000000000000000000000000000008152600401610b0f90611e9a565b60405180910390fd5b8060016000610b25611056565b73ffffffffffffffffffffffffffffffffffffffff1673ffffffffffffffffffffffffffffffffffffffff16815260200190815260200160002060008473ffffffffffffffffffffffffffffffffffffffff1673ffffffffffffffffffffffffffffffffffffffff16815260200190815260200160002060006101000a81548160ff0219169083151502179055508173ffffffffffffffffffffffffffffffffffffffff16610bd2611056565b73ffffffffffffffffffffffffffffffffffffffff167f17307eab39ab6107e8899845ad3d59bd9653f200f220920489ca2b5937696c3183604051610c179190611d7d565b60405180910390a35050565b600281565b600181565b6000600160008473ffffffffffffffffffffffffffffffffffffffff1673ffffffffffffffffffffffffffffffffffffffff16815260200190815260200160002060008373ffffffffffffffffffffffffffffffffffffffff1673ffffffffffffffffffffffffffffffffffffffff16815260200190815260200160002060009054906101000a900460ff16905092915050565b600073ffffffffffffffffffffffffffffffffffffffff168473ffffffffffffffffffffffffffffffffffffffff161415610d31576040517f08c379a0000000000000000000000000000000000000000000000000000000008152600401610d2890611e3a565b60405180910390fd5b610d39611056565b73ffffffffffffffffffffffffffffffffffffffff168573ffffffffffffffffffffffffffffffffffffffff161480610d7f5750610d7e85610d79611056565b610c2d565b5b610dbe576040517f08c379a0000000000000000000000000000000000000000000000000000000008152600401610db590611e1a565b60405180910390fd5b6000610dc8611056565b9050610de8818787610dd98861124d565b610de28861124d565b8761105e565b600080600086815260200190815260200160002060008873ffffffffffffffffffffffffffffffffffffffff1673ffffffffffffffffffffffffffffffffffffffff16815260200190815260200160002054905083811015610e7f576040517f08c379a0000000000000000000000000000000000000000000000000000000008152600401610e7690611e7a565b60405180910390fd5b8381610e8b91906120b3565b60008087815260200190815260200160002060008973ffffffffffffffffffffffffffffffffffffffff1673ffffffffffffffffffffffffffffffffffffffff168152602001908152602001600020819055508360008087815260200190815260200160002060008873ffffffffffffffffffffffffffffffffffffffff1673ffffffffffffffffffffffffffffffffffffffff1681526020019081526020016000206000828254610f3d919061205d565b925050819055508573ffffffffffffffffffffffffffffffffffffffff168773ffffffffffffffffffffffffffffffffffffffff168373ffffffffffffffffffffffffffffffffffffffff167fc3d58168c5ae7397731d063d5bbf3d657854427343f4c083240f7aacaa2d0f628888604051610fba929190611f15565b60405180910390a4610fd0828888888888611313565b50505050505050565b600080823b905060008111915050919050565b60007f01ffc9a7000000000000000000000000000000000000000000000000000000007bffffffffffffffffffffffffffffffffffffffffffffffffffffffff1916827bffffffffffffffffffffffffffffffffffffffffffffffffffffffff1916149050919050565b600033905090565b505050505050565b6110858473ffffffffffffffffffffffffffffffffffffffff16610fd9565b15611245578373ffffffffffffffffffffffffffffffffffffffff1663bc197c8187878686866040518663ffffffff1660e01b81526004016110cb959493929190611c62565b602060405180830381600087803b1580156110e557600080fd5b505af192505050801561111657506040513d601f19601f82011682018060405250810190611113919061198e565b60015b6111bc576111226122d6565b806308c379a0141561117f575061113761262c565b806111425750611181565b806040517f08c379a00000000000000000000000000000000000000000000000000000000081526004016111769190611d98565b60405180910390fd5b505b6040517f08c379a00000000000000000000000000000000000000000000000000000000081526004016111b390611dba565b60405180910390fd5b63bc197c8160e01b7bffffffffffffffffffffffffffffffffffffffffffffffffffffffff1916817bffffffffffffffffffffffffffffffffffffffffffffffffffffffff191614611243576040517f08c379a000000000000000000000000000000000000000000000000000000000815260040161123a90611dda565b60405180910390fd5b505b505050505050565b60606000600167ffffffffffffffff811115611292577f4e487b7100000000000000000000000000000000000000000000000000000000600052604160045260246000fd5b6040519080825280602002602001820160405280156112c05781602001602082028036833780820191505090505b50905082816000815181106112fe577f4e487b7100000000000000000000000000000000000000000000000000000000600052603260045260246000fd5b60200260200101818152505080915050919050565b6113328473ffffffffffffffffffffffffffffffffffffffff16610fd9565b156114f2578373ffffffffffffffffffffffffffffffffffffffff1663f23a6e6187878686866040518663ffffffff1660e01b8152600401611378959493929190611cca565b602060405180830381600087803b15801561139257600080fd5b505af19250505080156113c357506040513d601f19601f820116820180604052508101906113c0919061198e565b60015b611469576113cf6122d6565b806308c379a0141561142c57506113e461262c565b806113ef575061142e565b806040517f08c379a00000000000000000000000000000000000000000000000000000000081526004016114239190611d98565b60405180910390fd5b505b6040517f08c379a000000000000000000000000000000000000000000000000000000000815260040161146090611dba565b60405180910390fd5b63f23a6e6160e01b7bffffffffffffffffffffffffffffffffffffffffffffffffffffffff1916817bffffffffffffffffffffffffffffffffffffffffffffffffffffffff1916146114f0576040517f08c379a00000000000000000000000000000000000000000000000000000000081526004016114e790611dda565b60405180910390fd5b505b505050505050565b600061150d61150884611f63565b611f3e565b9050808382526020820190508285602086028201111561152c57600080fd5b60005b8581101561155c57816115428882611610565b84526020840193506020830192505060018101905061152f565b5050509392505050565b600061157961157484611f8f565b611f3e565b9050808382526020820190508285602086028201111561159857600080fd5b60005b858110156115c857816115ae88826116e2565b84526020840193506020830192505060018101905061159b565b5050509392505050565b60006115e56115e084611fbb565b611f3e565b9050828152602081018484840111156115fd57600080fd5b61160884828561215b565b509392505050565b60008135905061161f816126c2565b92915050565b600082601f83011261163657600080fd5b81356116468482602086016114fa565b91505092915050565b600082601f83011261166057600080fd5b8135611670848260208601611566565b91505092915050565b600081359050611688816126d9565b92915050565b60008135905061169d816126f0565b92915050565b6000815190506116b2816126f0565b92915050565b600082601f8301126116c957600080fd5b81356116d98482602086016115d2565b91505092915050565b6000813590506116f181612707565b92915050565b6000806040838503121561170a57600080fd5b600061171885828601611610565b925050602061172985828601611610565b9150509250929050565b600080600080600060a0868803121561174b57600080fd5b600061175988828901611610565b955050602061176a88828901611610565b945050604086013567ffffffffffffffff81111561178757600080fd5b6117938882890161164f565b935050606086013567ffffffffffffffff8111156117b057600080fd5b6117bc8882890161164f565b925050608086013567ffffffffffffffff8111156117d957600080fd5b6117e5888289016116b8565b9150509295509295909350565b600080600080600060a0868803121561180a57600080fd5b600061181888828901611610565b955050602061182988828901611610565b945050604061183a888289016116e2565b935050606061184b888289016116e2565b925050608086013567ffffffffffffffff81111561186857600080fd5b611874888289016116b8565b9150509295509295909350565b6000806040838503121561189457600080fd5b60006118a285828601611610565b92505060206118b385828601611679565b9150509250929050565b600080604083850312156118d057600080fd5b60006118de85828601611610565b92505060206118ef858286016116e2565b9150509250929050565b6000806040838503121561190c57600080fd5b600083013567ffffffffffffffff81111561192657600080fd5b61193285828601611625565b925050602083013567ffffffffffffffff81111561194f57600080fd5b61195b8582860161164f565b9150509250929050565b60006020828403121561197757600080fd5b60006119858482850161168e565b91505092915050565b6000602082840312156119a057600080fd5b60006119ae848285016116a3565b91505092915050565b6000602082840312156119c957600080fd5b60006119d7848285016116e2565b91505092915050565b60006119ec8383611c44565b60208301905092915050565b611a01816120e7565b82525050565b6000611a1282611ffc565b611a1c818561202a565b9350611a2783611fec565b8060005b83811015611a58578151611a3f88826119e0565b9750611a4a8361201d565b925050600181019050611a2b565b5085935050505092915050565b611a6e816120f9565b82525050565b6000611a7f82612007565b611a89818561203b565b9350611a9981856020860161216a565b611aa2816122f8565b840191505092915050565b6000611ab882612012565b611ac2818561204c565b9350611ad281856020860161216a565b611adb816122f8565b840191505092915050565b6000611af360348361204c565b9150611afe82612316565b604082019050919050565b6000611b1660288361204c565b9150611b2182612365565b604082019050919050565b6000611b39602b8361204c565b9150611b44826123b4565b604082019050919050565b6000611b5c60298361204c565b9150611b6782612403565b604082019050919050565b6000611b7f60258361204c565b9150611b8a82612452565b604082019050919050565b6000611ba260328361204c565b9150611bad826124a1565b604082019050919050565b6000611bc5602a8361204c565b9150611bd0826124f0565b604082019050919050565b6000611be860298361204c565b9150611bf38261253f565b604082019050919050565b6000611c0b60298361204c565b9150611c168261258e565b604082019050919050565b6000611c2e60288361204c565b9150611c39826125dd565b604082019050919050565b611c4d81612151565b82525050565b611c5c81612151565b82525050565b600060a082019050611c7760008301886119f8565b611c8460208301876119f8565b8181036040830152611c968186611a07565b90508181036060830152611caa8185611a07565b90508181036080830152611cbe8184611a74565b90509695505050505050565b600060a082019050611cdf60008301886119f8565b611cec60208301876119f8565b611cf96040830186611c53565b611d066060830185611c53565b8181036080830152611d188184611a74565b90509695505050505050565b60006020820190508181036000830152611d3e8184611a07565b905092915050565b60006040820190508181036000830152611d608185611a07565b90508181036020830152611d748184611a07565b90509392505050565b6000602082019050611d926000830184611a65565b92915050565b60006020820190508181036000830152611db28184611aad565b905092915050565b60006020820190508181036000830152611dd381611ae6565b9050919050565b60006020820190508181036000830152611df381611b09565b9050919050565b60006020820190508181036000830152611e1381611b2c565b9050919050565b60006020820190508181036000830152611e3381611b4f565b9050919050565b60006020820190508181036000830152611e5381611b72565b9050919050565b60006020820190508181036000830152611e7381611b95565b9050919050565b60006020820190508181036000830152611e9381611bb8565b9050919050565b60006020820190508181036000830152611eb381611bdb565b9050919050565b60006020820190508181036000830152611ed381611bfe565b9050919050565b60006020820190508181036000830152611ef381611c21565b9050919050565b6000602082019050611f0f6000830184611c53565b92915050565b6000604082019050611f2a6000830185611c53565b611f376020830184611c53565b9392505050565b6000611f48611f59565b9050611f5482826121cf565b919050565b6000604051905090565b600067ffffffffffffffff821115611f7e57611f7d6122a7565b5b602082029050602081019050919050565b600067ffffffffffffffff821115611faa57611fa96122a7565b5b602082029050602081019050919050565b600067ffffffffffffffff821115611fd657611fd56122a7565b5b611fdf826122f8565b9050602081019050919050565b6000819050602082019050919050565b600081519050919050565b600081519050919050565b600081519050919050565b6000602082019050919050565b600082825260208201905092915050565b600082825260208201905092915050565b600082825260208201905092915050565b600061206882612151565b915061207383612151565b9250827fffffffffffffffffffffffffffffffffffffffffffffffffffffffffffffffff038211156120a8576120a7612249565b5b828201905092915050565b60006120be82612151565b91506120c983612151565b9250828210156120dc576120db612249565b5b828203905092915050565b60006120f282612131565b9050919050565b60008115159050919050565b60007fffffffff0000000000000000000000000000000000000000000000000000000082169050919050565b600073ffffffffffffffffffffffffffffffffffffffff82169050919050565b6000819050919050565b82818337600083830152505050565b60005b8381101561218857808201518184015260208101905061216d565b83811115612197576000848401525b50505050565b600060028204905060018216806121b557607f821691505b602082108114156121c9576121c8612278565b5b50919050565b6121d8826122f8565b810181811067ffffffffffffffff821117156121f7576121f66122a7565b5b80604052505050565b600061220b82612151565b91507fffffffffffffffffffffffffffffffffffffffffffffffffffffffffffffffff82141561223e5761223d612249565b5b600182019050919050565b7f4e487b7100000000000000000000000000000000000000000000000000000000600052601160045260246000fd5b7f4e487b7100000000000000000000000000000000000000000000000000000000600052602260045260246000fd5b7f4e487b7100000000000000000000000000000000000000000000000000000000600052604160045260246000fd5b600060033d11156122f55760046000803e6122f2600051612309565b90505b90565b6000601f19601f8301169050919050565b60008160e01c9050919050565b7f455243313135353a207472616e7366657220746f206e6f6e204552433131353560008201527f526563656976657220696d706c656d656e746572000000000000000000000000602082015250565b7f455243313135353a204552433131353552656365697665722072656a6563746560008201527f6420746f6b656e73000000000000000000000000000000000000000000000000602082015250565b7f455243313135353a2062616c616e636520717565727920666f7220746865207a60008201527f65726f2061646472657373000000000000000000000000000000000000000000602082015250565b7f455243313135353a2063616c6c6572206973206e6f74206f776e6572206e6f7260008201527f20617070726f7665640000000000000000000000000000000000000000000000602082015250565b7f455243313135353a207472616e7366657220746f20746865207a65726f20616460008201527f6472657373000000000000000000000000000000000000000000000000000000602082015250565b7f455243313135353a207472616e736665722063616c6c6572206973206e6f742060008201527f6f776e6572206e6f7220617070726f7665640000000000000000000000000000602082015250565b7f455243313135353a20696e73756666696369656e742062616c616e636520666f60008201527f72207472616e7366657200000000000000000000000000000000000000000000602082015250565b7f455243313135353a2073657474696e6720617070726f76616c2073746174757360008201527f20666f722073656c660000000000000000000000000000000000000000000000602082015250565b7f455243313135353a206163636f756e747320616e6420696473206c656e67746860008201527f206d69736d617463680000000000000000000000000000000000000000000000602082015250565b7f455243313135353a2069647320616e6420616d6f756e7473206c656e6774682060008201527f6d69736d61746368000000000000000000000000000000000000000000000000602082015250565b600060443d101561263c576126bf565b612644611f59565b60043d036004823e80513d602482011167ffffffffffffffff8211171561266c5750506126bf565b808201805167ffffffffffffffff81111561268a57505050506126bf565b80602083010160043d0385018111156126a75750505050506126bf565b6126b6826020018501866121cf565b82955050505050505b90565b6126cb816120e7565b81146126d657600080fd5b50565b6126e2816120f9565b81146126ed57600080fd5b50565b6126f981612105565b811461270457600080fd5b50565b61271081612151565b811461271b57600080fd5b5056fea2646970667358221220181c0b91581e885f462e280c03814dc5365d6a66a37707dbd1b4c0eb6ab454a464736f6c6343000801003368747470733a2f2f67616d652e6578616d706c652f6170692f6974656d2f7b69647d2e6a736f6e",
  "immutableReferences": {},
  "source": "// SPDX-License-Identifier: MIT\npragma solidity ^0.8.0;\nimport \"@openzeppelin/contracts/token/ERC1155/ERC1155.sol\";\n\ncontract Token1155 is ERC1155 {\n\n    uint256 public constant GOLD = 0;\n    uint256 public constant SILVER = 1;\n    uint256 public constant THORS_HAMMER = 2;\n    uint256 public constant SWORD = 3;\n    uint256 public constant SHIELD = 4;\n\n    constructor() ERC1155(\"https://game.example/api/item/{id}.json\") {\n        _mint(msg.sender, GOLD, 10**18, \"\");\n        _mint(msg.sender, SILVER, 10**27, \"\");\n        _mint(msg.sender, THORS_HAMMER, 1, \"\");\n        _mint(msg.sender, SWORD, 10**9, \"\");\n        _mint(msg.sender, SHIELD, 10**9, \"\");\n    }\n}",
  "sourcePath": "/home/eurus/ERCTokens/contracts/ERC1155.sol",
  "compiler": {
    "name": "solc",
    "version": "0.8.1+commit.df193b15.Emscripten.clang"
  },
  "schemaVersion": "3.3.4",
  "updatedAt": "2021-05-31T03:18:24.770Z",
  "networkType": "ethereum",
  "devdoc": {
    "kind": "dev",
    "methods": {
      "balanceOf(address,uint256)": {
        "details": "See {IERC1155-balanceOf}. Requirements: - `account` cannot be the zero address."
      },
      "balanceOfBatch(address[],uint256[])": {
        "details": "See {IERC1155-balanceOfBatch}. Requirements: - `accounts` and `ids` must have the same length."
      },
      "isApprovedForAll(address,address)": {
        "details": "See {IERC1155-isApprovedForAll}."
      },
      "safeBatchTransferFrom(address,address,uint256[],uint256[],bytes)": {
        "details": "See {IERC1155-safeBatchTransferFrom}."
      },
      "safeTransferFrom(address,address,uint256,uint256,bytes)": {
        "details": "See {IERC1155-safeTransferFrom}."
      },
      "setApprovalForAll(address,bool)": {
        "details": "See {IERC1155-setApprovalForAll}."
      },
      "supportsInterface(bytes4)": {
        "details": "See {IERC165-supportsInterface}."
      },
      "uri(uint256)": {
        "details": "See {IERC1155MetadataURI-uri}. This implementation returns the same URI for *all* token types. It relies on the token type ID substitution mechanism https://eips.ethereum.org/EIPS/eip-1155#metadata[defined in the EIP]. Clients calling this function must replace the `\\{id\\}` substring with the actual token type ID."
      }
    },
    "version": 1
  },
  "userdoc": {
    "kind": "user",
    "methods": {},
    "version": 1
  }
}